{
  "_format": "hh-sol-artifact-1",
  "contractName": "ERC721",
  "sourceName": "contracts/WinnerNFT.sol",
  "abi": [
    {
      "inputs": [
        {
          "internalType": "string",
          "name": "name_",
          "type": "string"
        },
        {
          "internalType": "string",
          "name": "symbol_",
          "type": "string"
        }
      ],
      "stateMutability": "nonpayable",
      "type": "constructor"
    },
    {
      "anonymous": false,
      "inputs": [
        {
          "indexed": true,
          "internalType": "address",
          "name": "owner",
          "type": "address"
        },
        {
          "indexed": true,
          "internalType": "address",
          "name": "approved",
          "type": "address"
        },
        {
          "indexed": true,
          "internalType": "uint256",
          "name": "tokenId",
          "type": "uint256"
        }
      ],
      "name": "Approval",
      "type": "event"
    },
    {
      "anonymous": false,
      "inputs": [
        {
          "indexed": true,
          "internalType": "address",
          "name": "owner",
          "type": "address"
        },
        {
          "indexed": true,
          "internalType": "address",
          "name": "operator",
          "type": "address"
        },
        {
          "indexed": false,
          "internalType": "bool",
          "name": "approved",
          "type": "bool"
        }
      ],
      "name": "ApprovalForAll",
      "type": "event"
    },
    {
      "anonymous": false,
      "inputs": [
        {
          "indexed": true,
          "internalType": "address",
          "name": "previousOwner",
          "type": "address"
        },
        {
          "indexed": true,
          "internalType": "address",
          "name": "newOwner",
          "type": "address"
        }
      ],
      "name": "OwnershipTransferred",
      "type": "event"
    },
    {
      "anonymous": false,
      "inputs": [
        {
          "indexed": true,
          "internalType": "address",
          "name": "from",
          "type": "address"
        },
        {
          "indexed": true,
          "internalType": "address",
          "name": "to",
          "type": "address"
        },
        {
          "indexed": true,
          "internalType": "uint256",
          "name": "tokenId",
          "type": "uint256"
        }
      ],
      "name": "Transfer",
      "type": "event"
    },
    {
      "inputs": [
        {
          "internalType": "address",
          "name": "to",
          "type": "address"
        },
        {
          "internalType": "uint256",
          "name": "tokenId",
          "type": "uint256"
        }
      ],
      "name": "approve",
      "outputs": [],
      "stateMutability": "nonpayable",
      "type": "function"
    },
    {
      "inputs": [
        {
          "internalType": "address",
          "name": "owner",
          "type": "address"
        }
      ],
      "name": "balanceOf",
      "outputs": [
        {
          "internalType": "uint256",
          "name": "",
          "type": "uint256"
        }
      ],
      "stateMutability": "view",
      "type": "function"
    },
    {
      "inputs": [
        {
          "internalType": "uint256",
          "name": "tokenId",
          "type": "uint256"
        }
      ],
      "name": "getApproved",
      "outputs": [
        {
          "internalType": "address",
          "name": "",
          "type": "address"
        }
      ],
      "stateMutability": "view",
      "type": "function"
    },
    {
      "inputs": [
        {
          "internalType": "address",
          "name": "owner",
          "type": "address"
        },
        {
          "internalType": "address",
          "name": "operator",
          "type": "address"
        }
      ],
      "name": "isApprovedForAll",
      "outputs": [
        {
          "internalType": "bool",
          "name": "",
          "type": "bool"
        }
      ],
      "stateMutability": "view",
      "type": "function"
    },
    {
      "inputs": [
        {
          "internalType": "address",
          "name": "to_",
          "type": "address"
        },
        {
          "internalType": "uint256",
          "name": "species",
          "type": "uint256"
        },
        {
          "internalType": "uint256",
          "name": "secret",
          "type": "uint256"
        }
      ],
      "name": "mint",
      "outputs": [],
      "stateMutability": "nonpayable",
      "type": "function"
    },
    {
      "inputs": [],
      "name": "name",
      "outputs": [
        {
          "internalType": "string",
          "name": "",
          "type": "string"
        }
      ],
      "stateMutability": "view",
      "type": "function"
    },
    {
      "inputs": [],
      "name": "owner",
      "outputs": [
        {
          "internalType": "address",
          "name": "",
          "type": "address"
        }
      ],
      "stateMutability": "view",
      "type": "function"
    },
    {
      "inputs": [
        {
          "internalType": "uint256",
          "name": "tokenId",
          "type": "uint256"
        }
      ],
      "name": "ownerOf",
      "outputs": [
        {
          "internalType": "address",
          "name": "",
          "type": "address"
        }
      ],
      "stateMutability": "view",
      "type": "function"
    },
    {
      "inputs": [],
      "name": "renounceOwnership",
      "outputs": [],
      "stateMutability": "nonpayable",
      "type": "function"
    },
    {
      "inputs": [
        {
          "internalType": "address",
          "name": "from",
          "type": "address"
        },
        {
          "internalType": "address",
          "name": "to",
          "type": "address"
        },
        {
          "internalType": "uint256",
          "name": "tokenId",
          "type": "uint256"
        }
      ],
      "name": "safeTransferFrom",
      "outputs": [],
      "stateMutability": "nonpayable",
      "type": "function"
    },
    {
      "inputs": [
        {
          "internalType": "address",
          "name": "from",
          "type": "address"
        },
        {
          "internalType": "address",
          "name": "to",
          "type": "address"
        },
        {
          "internalType": "uint256",
          "name": "tokenId",
          "type": "uint256"
        },
        {
          "internalType": "bytes",
          "name": "_data",
          "type": "bytes"
        }
      ],
      "name": "safeTransferFrom",
      "outputs": [],
      "stateMutability": "nonpayable",
      "type": "function"
    },
    {
      "inputs": [
        {
          "internalType": "address",
          "name": "operator",
          "type": "address"
        },
        {
          "internalType": "bool",
          "name": "approved",
          "type": "bool"
        }
      ],
      "name": "setApprovalForAll",
      "outputs": [],
      "stateMutability": "nonpayable",
      "type": "function"
    },
    {
      "inputs": [
        {
          "internalType": "bytes4",
          "name": "interfaceId",
          "type": "bytes4"
        }
      ],
      "name": "supportsInterface",
      "outputs": [
        {
          "internalType": "bool",
          "name": "",
          "type": "bool"
        }
      ],
      "stateMutability": "view",
      "type": "function"
    },
    {
      "inputs": [],
      "name": "symbol",
      "outputs": [
        {
          "internalType": "string",
          "name": "",
          "type": "string"
        }
      ],
      "stateMutability": "view",
      "type": "function"
    },
    {
      "inputs": [
        {
          "internalType": "uint256",
          "name": "tokenId",
          "type": "uint256"
        }
      ],
      "name": "tokenURI",
      "outputs": [
        {
          "internalType": "string",
          "name": "",
          "type": "string"
        }
      ],
      "stateMutability": "view",
      "type": "function"
    },
    {
      "inputs": [
        {
          "internalType": "address",
          "name": "from",
          "type": "address"
        },
        {
          "internalType": "address",
          "name": "to",
          "type": "address"
        },
        {
          "internalType": "uint256",
          "name": "tokenId",
          "type": "uint256"
        }
      ],
      "name": "transferFrom",
      "outputs": [],
      "stateMutability": "nonpayable",
      "type": "function"
    },
    {
      "inputs": [
        {
          "internalType": "address",
          "name": "newOwner",
          "type": "address"
        }
      ],
      "name": "transferOwnership",
      "outputs": [],
      "stateMutability": "nonpayable",
      "type": "function"
    }
  ],
  "bytecode": "0x608060405260016008553480156200001657600080fd5b5060405162003d3638038062003d3683398181016040528101906200003c91906200086b565b6200005c62000050620000fe60201b60201c565b6200010660201b60201c565b81600190805190602001906200007492919062000706565b5080600290805190602001906200008d92919062000706565b50620000b23360085460405180602001604052806000815250620001ca60201b60201c565b600860008154620000c39062000cae565b91905081905550620000f6600160405180608001604052806057815260200162003cdf605791396200023860201b60201c565b505062000ea4565b600033905090565b60008060009054906101000a900473ffffffffffffffffffffffffffffffffffffffff169050816000806101000a81548173ffffffffffffffffffffffffffffffffffffffff021916908373ffffffffffffffffffffffffffffffffffffffff1602179055508173ffffffffffffffffffffffffffffffffffffffff168173ffffffffffffffffffffffffffffffffffffffff167f8be0079c531659141344cd1fd0a4f28419497f9722a3daafe3b4186f6b6457e060405160405180910390a35050565b620001dc8383620002b960201b60201c565b620001f16000848484620004b360201b60201c565b62000233576040517f08c379a00000000000000000000000000000000000000000000000000000000081526004016200022a9062000a31565b60405180910390fd5b505050565b62000249826200066d60201b60201c565b6200028b576040517f08c379a0000000000000000000000000000000000000000000000000000000008152600401620002829062000a75565b60405180910390fd5b80600360008481526020019081526020016000209080519060200190620002b492919062000706565b505050565b600073ffffffffffffffffffffffffffffffffffffffff168273ffffffffffffffffffffffffffffffffffffffff1614156200032c576040517f08c379a0000000000000000000000000000000000000000000000000000000008152600401620003239062000a97565b60405180910390fd5b6200033d816200066d60201b60201c565b1562000380576040517f08c379a0000000000000000000000000000000000000000000000000000000008152600401620003779062000a53565b60405180910390fd5b6200039460008383620006d960201b60201c565b6001600560008473ffffffffffffffffffffffffffffffffffffffff1673ffffffffffffffffffffffffffffffffffffffff1681526020019081526020016000206000828254620003e6919062000b45565b92505081905550816004600083815260200190815260200160002060006101000a81548173ffffffffffffffffffffffffffffffffffffffff021916908373ffffffffffffffffffffffffffffffffffffffff160217905550808273ffffffffffffffffffffffffffffffffffffffff16600073ffffffffffffffffffffffffffffffffffffffff167fddf252ad1be2c89b69c2b068fc378daa952ba7f163c4a11628f55a4df523b3ef60405160405180910390a4620004af60008383620006de60201b60201c565b5050565b6000620004e18473ffffffffffffffffffffffffffffffffffffffff16620006e360201b62000fb51760201c565b1562000660578373ffffffffffffffffffffffffffffffffffffffff1663150b7a0262000513620000fe60201b60201c565b8786866040518563ffffffff1660e01b8152600401620005379493929190620009dd565b602060405180830381600087803b1580156200055257600080fd5b505af19250505080156200058657506040513d601f19601f820116820180604052508101906200058391906200083f565b60015b6200060f573d8060008114620005b9576040519150601f19603f3d011682016040523d82523d6000602084013e620005be565b606091505b5060008151141562000607576040517f08c379a0000000000000000000000000000000000000000000000000000000008152600401620005fe9062000a31565b60405180910390fd5b805181602001fd5b63150b7a0260e01b7bffffffffffffffffffffffffffffffffffffffffffffffffffffffff1916817bffffffffffffffffffffffffffffffffffffffffffffffffffffffff19161491505062000665565b600190505b949350505050565b60008073ffffffffffffffffffffffffffffffffffffffff166004600084815260200190815260200160002060009054906101000a900473ffffffffffffffffffffffffffffffffffffffff1673ffffffffffffffffffffffffffffffffffffffff1614159050919050565b505050565b505050565b6000808273ffffffffffffffffffffffffffffffffffffffff163b119050919050565b828054620007149062000c42565b90600052602060002090601f01602090048101928262000738576000855562000784565b82601f106200075357805160ff191683800117855562000784565b8280016001018555821562000784579182015b828111156200078357825182559160200191906001019062000766565b5b50905062000793919062000797565b5090565b5b80821115620007b257600081600090555060010162000798565b5090565b6000620007cd620007c78462000ae2565b62000ab9565b905082815260208101848484011115620007e657600080fd5b620007f384828562000c0c565b509392505050565b6000815190506200080c8162000e8a565b92915050565b600082601f8301126200082457600080fd5b815162000836848260208601620007b6565b91505092915050565b6000602082840312156200085257600080fd5b60006200086284828501620007fb565b91505092915050565b600080604083850312156200087f57600080fd5b600083015167ffffffffffffffff8111156200089a57600080fd5b620008a88582860162000812565b925050602083015167ffffffffffffffff811115620008c657600080fd5b620008d48582860162000812565b9150509250929050565b620008e98162000ba2565b82525050565b6000620008fc8262000b18565b62000908818562000b23565b93506200091a81856020860162000c0c565b620009258162000d89565b840191505092915050565b60006200093f60328362000b34565b91506200094c8262000d9a565b604082019050919050565b600062000966601c8362000b34565b9150620009738262000de9565b602082019050919050565b60006200098d602e8362000b34565b91506200099a8262000e12565b604082019050919050565b6000620009b460208362000b34565b9150620009c18262000e61565b602082019050919050565b620009d78162000c02565b82525050565b6000608082019050620009f46000830187620008de565b62000a036020830186620008de565b62000a126040830185620009cc565b818103606083015262000a268184620008ef565b905095945050505050565b6000602082019050818103600083015262000a4c8162000930565b9050919050565b6000602082019050818103600083015262000a6e8162000957565b9050919050565b6000602082019050818103600083015262000a90816200097e565b9050919050565b6000602082019050818103600083015262000ab281620009a5565b9050919050565b600062000ac562000ad8565b905062000ad3828262000c78565b919050565b6000604051905090565b600067ffffffffffffffff82111562000b005762000aff62000d5a565b5b62000b0b8262000d89565b9050602081019050919050565b600081519050919050565b600082825260208201905092915050565b600082825260208201905092915050565b600062000b528262000c02565b915062000b5f8362000c02565b9250827fffffffffffffffffffffffffffffffffffffffffffffffffffffffffffffffff0382111562000b975762000b9662000cfc565b5b828201905092915050565b600062000baf8262000be2565b9050919050565b60007fffffffff0000000000000000000000000000000000000000000000000000000082169050919050565b600073ffffffffffffffffffffffffffffffffffffffff82169050919050565b6000819050919050565b60005b8381101562000c2c57808201518184015260208101905062000c0f565b8381111562000c3c576000848401525b50505050565b6000600282049050600182168062000c5b57607f821691505b6020821081141562000c725762000c7162000d2b565b5b50919050565b62000c838262000d89565b810181811067ffffffffffffffff8211171562000ca55762000ca462000d5a565b5b80604052505050565b600062000cbb8262000c02565b91507fffffffffffffffffffffffffffffffffffffffffffffffffffffffffffffffff82141562000cf15762000cf062000cfc565b5b600182019050919050565b7f4e487b7100000000000000000000000000000000000000000000000000000000600052601160045260246000fd5b7f4e487b7100000000000000000000000000000000000000000000000000000000600052602260045260246000fd5b7f4e487b7100000000000000000000000000000000000000000000000000000000600052604160045260246000fd5b6000601f19601f8301169050919050565b7f4552433732313a207472616e7366657220746f206e6f6e20455243373231526560008201527f63656976657220696d706c656d656e7465720000000000000000000000000000602082015250565b7f4552433732313a20746f6b656e20616c7265616479206d696e74656400000000600082015250565b7f45524337323155524953746f726167653a2055524920736574206f66206e6f6e60008201527f6578697374656e7420746f6b656e000000000000000000000000000000000000602082015250565b7f4552433732313a206d696e7420746f20746865207a65726f2061646472657373600082015250565b62000e958162000bb6565b811462000ea157600080fd5b50565b612e2b8062000eb46000396000f3fe608060405234801561001057600080fd5b506004361061010b5760003560e01c806370a08231116100a2578063a22cb46511610071578063a22cb465146102a4578063b88d4fde146102c0578063c87b56dd146102dc578063e985e9c51461030c578063f2fde38b1461033c5761010b565b806370a082311461022e578063715018a61461025e5780638da5cb5b1461026857806395d89b41146102865761010b565b8063156e29f6116100de578063156e29f6146101aa57806323b872dd146101c657806342842e0e146101e25780636352211e146101fe5761010b565b806301ffc9a71461011057806306fdde0314610140578063081812fc1461015e578063095ea7b31461018e575b600080fd5b61012a60048036038101906101259190611e4c565b610358565b604051610137919061222f565b60405180910390f35b61014861043a565b604051610155919061224a565b60405180910390f35b61017860048036038101906101739190611e9e565b6104cc565b60405161018591906121c8565b60405180910390f35b6101a860048036038101906101a39190611dc1565b610551565b005b6101c460048036038101906101bf9190611dfd565b610669565b005b6101e060048036038101906101db9190611cbb565b6107cb565b005b6101fc60048036038101906101f79190611cbb565b610857565b005b61021860048036038101906102139190611e9e565b6108f3565b60405161022591906121c8565b60405180910390f35b61024860048036038101906102439190611c56565b6109a5565b604051610255919061244c565b60405180910390f35b610266610a5d565b005b610270610ae5565b60405161027d91906121c8565b60405180910390f35b61028e610b0e565b60405161029b919061224a565b60405180910390f35b6102be60048036038101906102b99190611d85565b610ba0565b005b6102da60048036038101906102d59190611d0a565b610bb6565b005b6102f660048036038101906102f19190611e9e565b610c44565b604051610303919061224a565b60405180910390f35b61032660048036038101906103219190611c7f565b610e29565b604051610333919061222f565b60405180910390f35b61035660048036038101906103519190611c56565b610ebd565b005b60007f80ac58cd000000000000000000000000000000000000000000000000000000007bffffffffffffffffffffffffffffffffffffffffffffffffffffffff1916827bffffffffffffffffffffffffffffffffffffffffffffffffffffffff1916148061042357507f5b5e139f000000000000000000000000000000000000000000000000000000007bffffffffffffffffffffffffffffffffffffffffffffffffffffffff1916827bffffffffffffffffffffffffffffffffffffffffffffffffffffffff1916145b80610433575061043282610fd8565b5b9050919050565b60606001805461044990612640565b80601f016020809104026020016040519081016040528092919081815260200182805461047590612640565b80156104c25780601f10610497576101008083540402835291602001916104c2565b820191906000526020600020905b8154815290600101906020018083116104a557829003601f168201915b5050505050905090565b60006104d782611042565b610516576040517f08c379a000000000000000000000000000000000000000000000000000000000815260040161050d906123ec565b60405180910390fd5b6006600083815260200190815260200160002060009054906101000a900473ffffffffffffffffffffffffffffffffffffffff169050919050565b600061055c826108f3565b90508073ffffffffffffffffffffffffffffffffffffffff168373ffffffffffffffffffffffffffffffffffffffff1614156105cd576040517f08c379a00000000000000000000000000000000000000000000000000000000081526004016105c49061242c565b60405180910390fd5b8073ffffffffffffffffffffffffffffffffffffffff166105ec6110ae565b73ffffffffffffffffffffffffffffffffffffffff16148061061b575061061a816106156110ae565b610e29565b5b61065a576040517f08c379a00000000000000000000000000000000000000000000000000000000081526004016106519061232c565b60405180910390fd5b61066483836110b6565b505050565b6101a4811461067757600080fd5b6106838360085461116f565b60008214156106b5576106b0600854604051806080016040528060578152602001612ca26057913961118d565b6107b0565b60018214156106e7576106e26008546040518060800160405280605a8152602001612bf0605a913961118d565b6107af565b600282141561071957610714600854604051806080016040528060568152602001612cf96056913961118d565b6107ae565b600382141561074b57610746600854604051806080016040528060548152602001612d4f6054913961118d565b6107ad565b600482141561077d57610778600854604051806080016040528060588152602001612c4a6058913961118d565b6107ac565b60058214156107ab576107aa600854604051806080016040528060538152602001612da36053913961118d565b5b5b5b5b5b5b6008600081546107bf906126a3565b91905081905550505050565b6107d36110ae565b73ffffffffffffffffffffffffffffffffffffffff166107f1610ae5565b73ffffffffffffffffffffffffffffffffffffffff1614610847576040517f08c379a000000000000000000000000000000000000000000000000000000000815260040161083e9061240c565b60405180910390fd5b610852838383611201565b505050565b61085f6110ae565b73ffffffffffffffffffffffffffffffffffffffff1661087d610ae5565b73ffffffffffffffffffffffffffffffffffffffff16146108d3576040517f08c379a00000000000000000000000000000000000000000000000000000000081526004016108ca9061240c565b60405180910390fd5b6108ee83838360405180602001604052806000815250610bb6565b505050565b6000806004600084815260200190815260200160002060009054906101000a900473ffffffffffffffffffffffffffffffffffffffff169050600073ffffffffffffffffffffffffffffffffffffffff168173ffffffffffffffffffffffffffffffffffffffff16141561099c576040517f08c379a00000000000000000000000000000000000000000000000000000000081526004016109939061236c565b60405180910390fd5b80915050919050565b60008073ffffffffffffffffffffffffffffffffffffffff168273ffffffffffffffffffffffffffffffffffffffff161415610a16576040517f08c379a0000000000000000000000000000000000000000000000000000000008152600401610a0d9061234c565b60405180910390fd5b600560008373ffffffffffffffffffffffffffffffffffffffff1673ffffffffffffffffffffffffffffffffffffffff168152602001908152602001600020549050919050565b610a656110ae565b73ffffffffffffffffffffffffffffffffffffffff16610a83610ae5565b73ffffffffffffffffffffffffffffffffffffffff1614610ad9576040517f08c379a0000000000000000000000000000000000000000000000000000000008152600401610ad09061240c565b60405180910390fd5b610ae36000611468565b565b60008060009054906101000a900473ffffffffffffffffffffffffffffffffffffffff16905090565b606060028054610b1d90612640565b80601f0160208091040260200160405190810160405280929190818152602001828054610b4990612640565b8015610b965780601f10610b6b57610100808354040283529160200191610b96565b820191906000526020600020905b815481529060010190602001808311610b7957829003601f168201915b5050505050905090565b610bb2610bab6110ae565b838361152c565b5050565b610bbe6110ae565b73ffffffffffffffffffffffffffffffffffffffff16610bdc610ae5565b73ffffffffffffffffffffffffffffffffffffffff1614610c32576040517f08c379a0000000000000000000000000000000000000000000000000000000008152600401610c299061240c565b60405180910390fd5b610c3e84848484611699565b50505050565b6060610c4f82611042565b610c8e576040517f08c379a0000000000000000000000000000000000000000000000000000000008152600401610c85906123cc565b60405180910390fd5b6000600360008481526020019081526020016000208054610cae90612640565b80601f0160208091040260200160405190810160405280929190818152602001828054610cda90612640565b8015610d275780601f10610cfc57610100808354040283529160200191610d27565b820191906000526020600020905b815481529060010190602001808311610d0a57829003601f168201915b505050505090506000610d386116f5565b9050600081511415610d4e578192505050610e24565b600082511115610d83578082604051602001610d6b9291906121a4565b60405160208183030381529060405292505050610e24565b600360008581526020019081526020016000208054610da190612640565b80601f0160208091040260200160405190810160405280929190818152602001828054610dcd90612640565b8015610e1a5780601f10610def57610100808354040283529160200191610e1a565b820191906000526020600020905b815481529060010190602001808311610dfd57829003601f168201915b5050505050925050505b919050565b6000600760008473ffffffffffffffffffffffffffffffffffffffff1673ffffffffffffffffffffffffffffffffffffffff16815260200190815260200160002060008373ffffffffffffffffffffffffffffffffffffffff1673ffffffffffffffffffffffffffffffffffffffff16815260200190815260200160002060009054906101000a900460ff16905092915050565b610ec56110ae565b73ffffffffffffffffffffffffffffffffffffffff16610ee3610ae5565b73ffffffffffffffffffffffffffffffffffffffff1614610f39576040517f08c379a0000000000000000000000000000000000000000000000000000000008152600401610f309061240c565b60405180910390fd5b600073ffffffffffffffffffffffffffffffffffffffff168173ffffffffffffffffffffffffffffffffffffffff161415610fa9576040517f08c379a0000000000000000000000000000000000000000000000000000000008152600401610fa09061228c565b60405180910390fd5b610fb281611468565b50565b6000808273ffffffffffffffffffffffffffffffffffffffff163b119050919050565b60007f01ffc9a7000000000000000000000000000000000000000000000000000000007bffffffffffffffffffffffffffffffffffffffffffffffffffffffff1916827bffffffffffffffffffffffffffffffffffffffffffffffffffffffff1916149050919050565b60008073ffffffffffffffffffffffffffffffffffffffff166004600084815260200190815260200160002060009054906101000a900473ffffffffffffffffffffffffffffffffffffffff1673ffffffffffffffffffffffffffffffffffffffff1614159050919050565b600033905090565b816006600083815260200190815260200160002060006101000a81548173ffffffffffffffffffffffffffffffffffffffff021916908373ffffffffffffffffffffffffffffffffffffffff160217905550808273ffffffffffffffffffffffffffffffffffffffff16611129836108f3565b73ffffffffffffffffffffffffffffffffffffffff167f8c5be1e5ebec7d5bd14f71427d1e84f3dd0314c0f7b2291e5b200ac8c7c3b92560405160405180910390a45050565b61118982826040518060200160405280600081525061170c565b5050565b61119682611042565b6111d5576040517f08c379a00000000000000000000000000000000000000000000000000000000081526004016111cc9061238c565b60405180910390fd5b806003600084815260200190815260200160002090805190602001906111fc929190611ae2565b505050565b8273ffffffffffffffffffffffffffffffffffffffff16611221826108f3565b73ffffffffffffffffffffffffffffffffffffffff1614611277576040517f08c379a000000000000000000000000000000000000000000000000000000000815260040161126e906122ac565b60405180910390fd5b600073ffffffffffffffffffffffffffffffffffffffff168273ffffffffffffffffffffffffffffffffffffffff1614156112e7576040517f08c379a00000000000000000000000000000000000000000000000000000000081526004016112de906122ec565b60405180910390fd5b6112f2838383611767565b6112fd6000826110b6565b6001600560008573ffffffffffffffffffffffffffffffffffffffff1673ffffffffffffffffffffffffffffffffffffffff168152602001908152602001600020600082825461134d9190612556565b925050819055506001600560008473ffffffffffffffffffffffffffffffffffffffff1673ffffffffffffffffffffffffffffffffffffffff16815260200190815260200160002060008282546113a49190612500565b92505081905550816004600083815260200190815260200160002060006101000a81548173ffffffffffffffffffffffffffffffffffffffff021916908373ffffffffffffffffffffffffffffffffffffffff160217905550808273ffffffffffffffffffffffffffffffffffffffff168473ffffffffffffffffffffffffffffffffffffffff167fddf252ad1be2c89b69c2b068fc378daa952ba7f163c4a11628f55a4df523b3ef60405160405180910390a461146383838361176c565b505050565b60008060009054906101000a900473ffffffffffffffffffffffffffffffffffffffff169050816000806101000a81548173ffffffffffffffffffffffffffffffffffffffff021916908373ffffffffffffffffffffffffffffffffffffffff1602179055508173ffffffffffffffffffffffffffffffffffffffff168173ffffffffffffffffffffffffffffffffffffffff167f8be0079c531659141344cd1fd0a4f28419497f9722a3daafe3b4186f6b6457e060405160405180910390a35050565b8173ffffffffffffffffffffffffffffffffffffffff168373ffffffffffffffffffffffffffffffffffffffff16141561159b576040517f08c379a00000000000000000000000000000000000000000000000000000000081526004016115929061230c565b60405180910390fd5b80600760008573ffffffffffffffffffffffffffffffffffffffff1673ffffffffffffffffffffffffffffffffffffffff16815260200190815260200160002060008473ffffffffffffffffffffffffffffffffffffffff1673ffffffffffffffffffffffffffffffffffffffff16815260200190815260200160002060006101000a81548160ff0219169083151502179055508173ffffffffffffffffffffffffffffffffffffffff168373ffffffffffffffffffffffffffffffffffffffff167f17307eab39ab6107e8899845ad3d59bd9653f200f220920489ca2b5937696c318360405161168c919061222f565b60405180910390a3505050565b6116a4848484611201565b6116b084848484611771565b6116ef576040517f08c379a00000000000000000000000000000000000000000000000000000000081526004016116e69061226c565b60405180910390fd5b50505050565b606060405180602001604052806000815250905090565b6117168383611908565b6117236000848484611771565b611762576040517f08c379a00000000000000000000000000000000000000000000000000000000081526004016117599061226c565b60405180910390fd5b505050565b505050565b505050565b60006117928473ffffffffffffffffffffffffffffffffffffffff16610fb5565b156118fb578373ffffffffffffffffffffffffffffffffffffffff1663150b7a026117bb6110ae565b8786866040518563ffffffff1660e01b81526004016117dd94939291906121e3565b602060405180830381600087803b1580156117f757600080fd5b505af192505050801561182857506040513d601f19601f820116820180604052508101906118259190611e75565b60015b6118ab573d8060008114611858576040519150601f19603f3d011682016040523d82523d6000602084013e61185d565b606091505b506000815114156118a3576040517f08c379a000000000000000000000000000000000000000000000000000000000815260040161189a9061226c565b60405180910390fd5b805181602001fd5b63150b7a0260e01b7bffffffffffffffffffffffffffffffffffffffffffffffffffffffff1916817bffffffffffffffffffffffffffffffffffffffffffffffffffffffff191614915050611900565b600190505b949350505050565b600073ffffffffffffffffffffffffffffffffffffffff168273ffffffffffffffffffffffffffffffffffffffff161415611978576040517f08c379a000000000000000000000000000000000000000000000000000000000815260040161196f906123ac565b60405180910390fd5b61198181611042565b156119c1576040517f08c379a00000000000000000000000000000000000000000000000000000000081526004016119b8906122cc565b60405180910390fd5b6119cd60008383611767565b6001600560008473ffffffffffffffffffffffffffffffffffffffff1673ffffffffffffffffffffffffffffffffffffffff1681526020019081526020016000206000828254611a1d9190612500565b92505081905550816004600083815260200190815260200160002060006101000a81548173ffffffffffffffffffffffffffffffffffffffff021916908373ffffffffffffffffffffffffffffffffffffffff160217905550808273ffffffffffffffffffffffffffffffffffffffff16600073ffffffffffffffffffffffffffffffffffffffff167fddf252ad1be2c89b69c2b068fc378daa952ba7f163c4a11628f55a4df523b3ef60405160405180910390a4611ade6000838361176c565b5050565b828054611aee90612640565b90600052602060002090601f016020900481019282611b105760008555611b57565b82601f10611b2957805160ff1916838001178555611b57565b82800160010185558215611b57579182015b82811115611b56578251825591602001919060010190611b3b565b5b509050611b649190611b68565b5090565b5b80821115611b81576000816000905550600101611b69565b5090565b6000611b98611b938461248c565b612467565b905082815260208101848484011115611bb057600080fd5b611bbb8482856125fe565b509392505050565b600081359050611bd281612b93565b92915050565b600081359050611be781612baa565b92915050565b600081359050611bfc81612bc1565b92915050565b600081519050611c1181612bc1565b92915050565b600082601f830112611c2857600080fd5b8135611c38848260208601611b85565b91505092915050565b600081359050611c5081612bd8565b92915050565b600060208284031215611c6857600080fd5b6000611c7684828501611bc3565b91505092915050565b60008060408385031215611c9257600080fd5b6000611ca085828601611bc3565b9250506020611cb185828601611bc3565b9150509250929050565b600080600060608486031215611cd057600080fd5b6000611cde86828701611bc3565b9350506020611cef86828701611bc3565b9250506040611d0086828701611c41565b9150509250925092565b60008060008060808587031215611d2057600080fd5b6000611d2e87828801611bc3565b9450506020611d3f87828801611bc3565b9350506040611d5087828801611c41565b925050606085013567ffffffffffffffff811115611d6d57600080fd5b611d7987828801611c17565b91505092959194509250565b60008060408385031215611d9857600080fd5b6000611da685828601611bc3565b9250506020611db785828601611bd8565b9150509250929050565b60008060408385031215611dd457600080fd5b6000611de285828601611bc3565b9250506020611df385828601611c41565b9150509250929050565b600080600060608486031215611e1257600080fd5b6000611e2086828701611bc3565b9350506020611e3186828701611c41565b9250506040611e4286828701611c41565b9150509250925092565b600060208284031215611e5e57600080fd5b6000611e6c84828501611bed565b91505092915050565b600060208284031215611e8757600080fd5b6000611e9584828501611c02565b91505092915050565b600060208284031215611eb057600080fd5b6000611ebe84828501611c41565b91505092915050565b611ed08161258a565b82525050565b611edf8161259c565b82525050565b6000611ef0826124bd565b611efa81856124d3565b9350611f0a81856020860161260d565b611f1381612779565b840191505092915050565b6000611f29826124c8565b611f3381856124e4565b9350611f4381856020860161260d565b611f4c81612779565b840191505092915050565b6000611f62826124c8565b611f6c81856124f5565b9350611f7c81856020860161260d565b80840191505092915050565b6000611f956032836124e4565b9150611fa08261278a565b604082019050919050565b6000611fb86026836124e4565b9150611fc3826127d9565b604082019050919050565b6000611fdb6025836124e4565b9150611fe682612828565b604082019050919050565b6000611ffe601c836124e4565b915061200982612877565b602082019050919050565b60006120216024836124e4565b915061202c826128a0565b604082019050919050565b60006120446019836124e4565b915061204f826128ef565b602082019050919050565b60006120676038836124e4565b915061207282612918565b604082019050919050565b600061208a602a836124e4565b915061209582612967565b604082019050919050565b60006120ad6029836124e4565b91506120b8826129b6565b604082019050919050565b60006120d0602e836124e4565b91506120db82612a05565b604082019050919050565b60006120f36020836124e4565b91506120fe82612a54565b602082019050919050565b60006121166031836124e4565b915061212182612a7d565b604082019050919050565b6000612139602c836124e4565b915061214482612acc565b604082019050919050565b600061215c6020836124e4565b915061216782612b1b565b602082019050919050565b600061217f6021836124e4565b915061218a82612b44565b604082019050919050565b61219e816125f4565b82525050565b60006121b08285611f57565b91506121bc8284611f57565b91508190509392505050565b60006020820190506121dd6000830184611ec7565b92915050565b60006080820190506121f86000830187611ec7565b6122056020830186611ec7565b6122126040830185612195565b81810360608301526122248184611ee5565b905095945050505050565b60006020820190506122446000830184611ed6565b92915050565b600060208201905081810360008301526122648184611f1e565b905092915050565b6000602082019050818103600083015261228581611f88565b9050919050565b600060208201905081810360008301526122a581611fab565b9050919050565b600060208201905081810360008301526122c581611fce565b9050919050565b600060208201905081810360008301526122e581611ff1565b9050919050565b6000602082019050818103600083015261230581612014565b9050919050565b6000602082019050818103600083015261232581612037565b9050919050565b600060208201905081810360008301526123458161205a565b9050919050565b600060208201905081810360008301526123658161207d565b9050919050565b60006020820190508181036000830152612385816120a0565b9050919050565b600060208201905081810360008301526123a5816120c3565b9050919050565b600060208201905081810360008301526123c5816120e6565b9050919050565b600060208201905081810360008301526123e581612109565b9050919050565b600060208201905081810360008301526124058161212c565b9050919050565b600060208201905081810360008301526124258161214f565b9050919050565b6000602082019050818103600083015261244581612172565b9050919050565b60006020820190506124616000830184612195565b92915050565b6000612471612482565b905061247d8282612672565b919050565b6000604051905090565b600067ffffffffffffffff8211156124a7576124a661274a565b5b6124b082612779565b9050602081019050919050565b600081519050919050565b600081519050919050565b600082825260208201905092915050565b600082825260208201905092915050565b600081905092915050565b600061250b826125f4565b9150612516836125f4565b9250827fffffffffffffffffffffffffffffffffffffffffffffffffffffffffffffffff0382111561254b5761254a6126ec565b5b828201905092915050565b6000612561826125f4565b915061256c836125f4565b92508282101561257f5761257e6126ec565b5b828203905092915050565b6000612595826125d4565b9050919050565b60008115159050919050565b60007fffffffff0000000000000000000000000000000000000000000000000000000082169050919050565b600073ffffffffffffffffffffffffffffffffffffffff82169050919050565b6000819050919050565b82818337600083830152505050565b60005b8381101561262b578082015181840152602081019050612610565b8381111561263a576000848401525b50505050565b6000600282049050600182168061265857607f821691505b6020821081141561266c5761266b61271b565b5b50919050565b61267b82612779565b810181811067ffffffffffffffff8211171561269a5761269961274a565b5b80604052505050565b60006126ae826125f4565b91507fffffffffffffffffffffffffffffffffffffffffffffffffffffffffffffffff8214156126e1576126e06126ec565b5b600182019050919050565b7f4e487b7100000000000000000000000000000000000000000000000000000000600052601160045260246000fd5b7f4e487b7100000000000000000000000000000000000000000000000000000000600052602260045260246000fd5b7f4e487b7100000000000000000000000000000000000000000000000000000000600052604160045260246000fd5b6000601f19601f8301169050919050565b7f4552433732313a207472616e7366657220746f206e6f6e20455243373231526560008201527f63656976657220696d706c656d656e7465720000000000000000000000000000602082015250565b7f4f776e61626c653a206e6577206f776e657220697320746865207a65726f206160008201527f6464726573730000000000000000000000000000000000000000000000000000602082015250565b7f4552433732313a207472616e736665722066726f6d20696e636f72726563742060008201527f6f776e6572000000000000000000000000000000000000000000000000000000602082015250565b7f4552433732313a20746f6b656e20616c7265616479206d696e74656400000000600082015250565b7f4552433732313a207472616e7366657220746f20746865207a65726f2061646460008201527f7265737300000000000000000000000000000000000000000000000000000000602082015250565b7f4552433732313a20617070726f766520746f2063616c6c657200000000000000600082015250565b7f4552433732313a20617070726f76652063616c6c6572206973206e6f74206f7760008201527f6e6572206e6f7220617070726f76656420666f7220616c6c0000000000000000602082015250565b7f4552433732313a2062616c616e636520717565727920666f7220746865207a6560008201527f726f206164647265737300000000000000000000000000000000000000000000602082015250565b7f4552433732313a206f776e657220717565727920666f72206e6f6e657869737460008201527f656e7420746f6b656e0000000000000000000000000000000000000000000000602082015250565b7f45524337323155524953746f726167653a2055524920736574206f66206e6f6e60008201527f6578697374656e7420746f6b656e000000000000000000000000000000000000602082015250565b7f4552433732313a206d696e7420746f20746865207a65726f2061646472657373600082015250565b7f45524337323155524953746f726167653a2055524920717565727920666f722060008201527f6e6f6e6578697374656e7420746f6b656e000000000000000000000000000000602082015250565b7f4552433732313a20617070726f76656420717565727920666f72206e6f6e657860008201527f697374656e7420746f6b656e0000000000000000000000000000000000000000602082015250565b7f4f776e61626c653a2063616c6c6572206973206e6f7420746865206f776e6572600082015250565b7f4552433732313a20617070726f76616c20746f2063757272656e74206f776e6560008201527f7200000000000000000000000000000000000000000000000000000000000000602082015250565b612b9c8161258a565b8114612ba757600080fd5b50565b612bb38161259c565b8114612bbe57600080fd5b50565b612bca816125a8565b8114612bd557600080fd5b50565b612be1816125f4565b8114612bec57600080fd5b5056fe68747470733a2f2f6c696e6b2e7573312e73746f726a73686172652e696f2f6a776a6f343669737876367761326e366761366337653470336166712f64656d6f2d6275636b657425324642696f6469766572736974792e706e6768747470733a2f2f6c696e6b2e7573312e73746f726a73686172652e696f2f6a777a6c36366566616d787362757068737963736d706832736d7a712f64656d6f2d6275636b65742532465261696e666f726573742e706e6768747470733a2f2f6c696e6b2e7573312e73746f726a73686172652e696f2f6a7574346f6476366833746a32657a776d696c75676c6833766935712f64656d6f2d6275636b65742532465472616e73706f72742e706e6768747470733a2f2f6c696e6b2e7573312e73746f726a73686172652e696f2f6a7662796f68716b733332747a68346975796a6964713568797865612f64656d6f2d6275636b6574253246436173685f6f75742e706e6768747470733a2f2f6c696e6b2e7573312e73746f726a73686172652e696f2f6a756b6834333666686d7064766d687568706a7a74636d6b6c6a63712f64656d6f2d6275636b65742532464f6365616e732e706e6768747470733a2f2f6c696e6b2e7573312e73746f726a73686172652e696f2f6a7570796b7a696867726e65776d673766786c77727a6463636677712f64656d6f2d6275636b6574253246536f6c61722e706e67a264697066735822122028bb354dd0c3db5539bfb3a05861cd9a974eeefa3f27f1b19f333464037b22b564736f6c6343000804003368747470733a2f2f6c696e6b2e7573312e73746f726a73686172652e696f2f732f6a78667a63676c646d77637774366767676a346f65366374356575712f64656d6f2d6275636b65742f546f705f446f6e6f722e706e67",
  "linkReferences": {},
  "deployedLinkReferences": {}
}